{
  "abi": [
    {
      "inputs": [],
      "stateMutability": "nonpayable",
      "type": "constructor"
    },
    {
      "anonymous": false,
      "inputs": [
        {
          "indexed": true,
          "internalType": "address",
          "name": "owner",
          "type": "address"
        },
        {
          "indexed": true,
          "internalType": "address",
          "name": "spender",
          "type": "address"
        },
        {
          "indexed": false,
          "internalType": "uint256",
          "name": "value",
          "type": "uint256"
        }
      ],
      "name": "Approval",
      "type": "event"
    },
    {
      "anonymous": false,
      "inputs": [
        {
          "indexed": true,
          "internalType": "address",
          "name": "from",
          "type": "address"
        },
        {
          "indexed": true,
          "internalType": "address",
          "name": "to",
          "type": "address"
        },
        {
          "indexed": false,
          "internalType": "uint256",
          "name": "value",
          "type": "uint256"
        }
      ],
      "name": "Transfer",
      "type": "event"
    },
    {
      "inputs": [
        {
          "internalType": "address",
          "name": "owner",
          "type": "address"
        },
        {
          "internalType": "address",
          "name": "spender",
          "type": "address"
        }
      ],
      "name": "allowance",
      "outputs": [
        {
          "internalType": "uint256",
          "name": "",
          "type": "uint256"
        }
      ],
      "stateMutability": "view",
      "type": "function"
    },
    {
      "inputs": [
        {
          "internalType": "address",
          "name": "spender",
          "type": "address"
        },
        {
          "internalType": "uint256",
          "name": "amount",
          "type": "uint256"
        }
      ],
      "name": "approve",
      "outputs": [
        {
          "internalType": "bool",
          "name": "",
          "type": "bool"
        }
      ],
      "stateMutability": "nonpayable",
      "type": "function"
    },
    {
      "inputs": [
        {
          "internalType": "address",
          "name": "account",
          "type": "address"
        }
      ],
      "name": "balanceOf",
      "outputs": [
        {
          "internalType": "uint256",
          "name": "",
          "type": "uint256"
        }
      ],
      "stateMutability": "view",
      "type": "function"
    },
    {
      "inputs": [
        {
          "internalType": "address",
          "name": "_from",
          "type": "address"
        },
        {
          "internalType": "uint256",
          "name": "_amount",
          "type": "uint256"
        }
      ],
      "name": "burnFrom",
      "outputs": [
        {
          "internalType": "bool",
          "name": "",
          "type": "bool"
        }
      ],
      "stateMutability": "nonpayable",
      "type": "function"
    },
    {
      "inputs": [],
      "name": "decimals",
      "outputs": [
        {
          "internalType": "uint8",
          "name": "",
          "type": "uint8"
        }
      ],
      "stateMutability": "view",
      "type": "function"
    },
    {
      "inputs": [
        {
          "internalType": "address",
          "name": "spender",
          "type": "address"
        },
        {
          "internalType": "uint256",
          "name": "subtractedValue",
          "type": "uint256"
        }
      ],
      "name": "decreaseAllowance",
      "outputs": [
        {
          "internalType": "bool",
          "name": "",
          "type": "bool"
        }
      ],
      "stateMutability": "nonpayable",
      "type": "function"
    },
    {
      "inputs": [
        {
          "internalType": "address",
          "name": "spender",
          "type": "address"
        },
        {
          "internalType": "uint256",
          "name": "addedValue",
          "type": "uint256"
        }
      ],
      "name": "increaseAllowance",
      "outputs": [
        {
          "internalType": "bool",
          "name": "",
          "type": "bool"
        }
      ],
      "stateMutability": "nonpayable",
      "type": "function"
    },
    {
      "inputs": [
        {
          "internalType": "address",
          "name": "_pool",
          "type": "address"
        }
      ],
      "name": "initialize",
      "outputs": [],
      "stateMutability": "nonpayable",
      "type": "function"
    },
    {
      "inputs": [
        {
          "internalType": "address",
          "name": "_to",
          "type": "address"
        },
        {
          "internalType": "uint256",
          "name": "_amount",
          "type": "uint256"
        }
      ],
      "name": "mint",
      "outputs": [
        {
          "internalType": "bool",
          "name": "",
          "type": "bool"
        }
      ],
      "stateMutability": "nonpayable",
      "type": "function"
    },
    {
      "inputs": [
        {
          "internalType": "address",
          "name": "_to",
          "type": "address"
        },
        {
          "internalType": "uint256",
          "name": "_frac",
          "type": "uint256"
        }
      ],
      "name": "mint_relative",
      "outputs": [
        {
          "internalType": "uint256",
          "name": "",
          "type": "uint256"
        }
      ],
      "stateMutability": "nonpayable",
      "type": "function"
    },
    {
      "inputs": [],
      "name": "minter",
      "outputs": [
        {
          "internalType": "address",
          "name": "",
          "type": "address"
        }
      ],
      "stateMutability": "view",
      "type": "function"
    },
    {
      "inputs": [],
      "name": "name",
      "outputs": [
        {
          "internalType": "string",
          "name": "",
          "type": "string"
        }
      ],
      "stateMutability": "view",
      "type": "function"
    },
    {
      "inputs": [],
      "name": "symbol",
      "outputs": [
        {
          "internalType": "string",
          "name": "",
          "type": "string"
        }
      ],
      "stateMutability": "view",
      "type": "function"
    },
    {
      "inputs": [],
      "name": "totalSupply",
      "outputs": [
        {
          "internalType": "uint256",
          "name": "",
          "type": "uint256"
        }
      ],
      "stateMutability": "view",
      "type": "function"
    },
    {
      "inputs": [
        {
          "internalType": "address",
          "name": "to",
          "type": "address"
        },
        {
          "internalType": "uint256",
          "name": "amount",
          "type": "uint256"
        }
      ],
      "name": "transfer",
      "outputs": [
        {
          "internalType": "bool",
          "name": "",
          "type": "bool"
        }
      ],
      "stateMutability": "nonpayable",
      "type": "function"
    },
    {
      "inputs": [
        {
          "internalType": "address",
          "name": "from",
          "type": "address"
        },
        {
          "internalType": "address",
          "name": "to",
          "type": "address"
        },
        {
          "internalType": "uint256",
          "name": "amount",
          "type": "uint256"
        }
      ],
      "name": "transferFrom",
      "outputs": [
        {
          "internalType": "bool",
          "name": "",
          "type": "bool"
        }
      ],
      "stateMutability": "nonpayable",
      "type": "function"
    }
  ],
  "bytecode": {
    "object": "0x60806040523480156200001157600080fd5b506040518060400160405280601781526020017f4554482f737445544820506f6f6c204c5020546f6b656e000000000000000000815250604051806040016040528060098152602001680c6e4ec5ae6e88aa8960bb1b81525081600390816200007b919062000159565b5060046200008a828262000159565b5050600580546001600160a01b031990811660011790915560068054909116331790555062000225565b634e487b7160e01b600052604160045260246000fd5b600181811c90821680620000df57607f821691505b6020821081036200010057634e487b7160e01b600052602260045260246000fd5b50919050565b601f8211156200015457600081815260208120601f850160051c810160208610156200012f5750805b601f850160051c820191505b8181101562000150578281556001016200013b565b5050505b505050565b81516001600160401b03811115620001755762000175620000b4565b6200018d81620001868454620000ca565b8462000106565b602080601f831160018114620001c55760008415620001ac5750858301515b600019600386901b1c1916600185901b17855562000150565b600085815260208120601f198616915b82811015620001f657888601518255948401946001909101908401620001d5565b5085821015620002155787850151600019600388901b60f8161c191681555b5050505050600190811b01905550565b610dda80620002356000396000f3fe608060405234801561001057600080fd5b50600436106101005760003560e01c80636962f84511610097578063a457c2d711610066578063a457c2d714610222578063a9059cbb14610235578063c4d66de814610248578063dd62ed3e1461025d57600080fd5b80636962f845146101cb57806370a08231146101de57806379cc67901461020757806395d89b411461021a57600080fd5b806323b872dd116100d357806323b872dd14610183578063313ce5671461019657806339509351146101a557806340c10f19146101b857600080fd5b806306fdde03146101055780630754617214610123578063095ea7b31461014e57806318160ddd14610171575b600080fd5b61010d610270565b60405161011a9190610ad7565b60405180910390f35b600554610136906001600160a01b031681565b6040516001600160a01b03909116815260200161011a565b61016161015c366004610b41565b610302565b604051901515815260200161011a565b6002545b60405190815260200161011a565b610161610191366004610b6b565b61031c565b6040516012815260200161011a565b6101616101b3366004610b41565b610340565b6101616101c6366004610b41565b610362565b6101756101d9366004610b41565b6103ce565b6101756101ec366004610ba7565b6001600160a01b031660009081526020819052604090205490565b610161610215366004610b41565b610466565b61010d6104c4565b610161610230366004610b41565b6104d3565b610161610243366004610b41565b61054e565b61025b610256366004610ba7565b61055c565b005b61017561026b366004610bc2565b6105b6565b60606003805461027f90610bf5565b80601f01602080910402602001604051908101604052809291908181526020018280546102ab90610bf5565b80156102f85780601f106102cd576101008083540402835291602001916102f8565b820191906000526020600020905b8154815290600101906020018083116102db57829003601f168201915b5050505050905090565b6000336103108185856105e1565b60019150505b92915050565b60003361032a858285610706565b610335858585610780565b506001949350505050565b60003361031081858561035383836105b6565b61035d9190610c45565b6105e1565b6005546000906001600160a01b031633146103bb5760405162461bcd60e51b81526020600482015260146024820152731bdb9b1e481b5a5b9d195c8818d85b881b5a5b9d60621b60448201526064015b60405180910390fd5b6103c58383610912565b50600192915050565b6000806103dd6012600a610d3c565b836103e760025490565b6103f19190610d4b565b6103fb9190610d62565b6005549091506001600160a01b0316331461044f5760405162461bcd60e51b81526020600482015260146024820152731bdb9b1e481b5a5b9d195c8818d85b881b5a5b9d60621b60448201526064016103b2565b801561045f5761045f8482610912565b9392505050565b6005546000906001600160a01b031633146104ba5760405162461bcd60e51b815260206004820152601460248201527337b7363c9036b4b73a32b91031b0b710313ab93760611b60448201526064016103b2565b6103c583836109bf565b60606004805461027f90610bf5565b600033816104e182866105b6565b9050838110156105415760405162461bcd60e51b815260206004820152602560248201527f45524332303a2064656372656173656420616c6c6f77616e63652062656c6f77604482015264207a65726f60d81b60648201526084016103b2565b61033582868684036105e1565b600033610310818585610780565b6006546001600160a01b0316331461057357600080fd5b600580546001600160a01b0319166001600160a01b03831617905560405160008082523391600080516020610d858339815191529060200160405180910390a350565b6001600160a01b03918216600090815260016020908152604080832093909416825291909152205490565b6001600160a01b0383166106435760405162461bcd60e51b8152602060048201526024808201527f45524332303a20617070726f76652066726f6d20746865207a65726f206164646044820152637265737360e01b60648201526084016103b2565b6001600160a01b0382166106a45760405162461bcd60e51b815260206004820152602260248201527f45524332303a20617070726f766520746f20746865207a65726f206164647265604482015261737360f01b60648201526084016103b2565b6001600160a01b0383811660008181526001602090815260408083209487168084529482529182902085905590518481527f8c5be1e5ebec7d5bd14f71427d1e84f3dd0314c0f7b2291e5b200ac8c7c3b92591015b60405180910390a3505050565b600061071284846105b6565b9050600019811461077a578181101561076d5760405162461bcd60e51b815260206004820152601d60248201527f45524332303a20696e73756666696369656e7420616c6c6f77616e636500000060448201526064016103b2565b61077a84848484036105e1565b50505050565b6001600160a01b0383166107e45760405162461bcd60e51b815260206004820152602560248201527f45524332303a207472616e736665722066726f6d20746865207a65726f206164604482015264647265737360d81b60648201526084016103b2565b6001600160a01b0382166108465760405162461bcd60e51b815260206004820152602360248201527f45524332303a207472616e7366657220746f20746865207a65726f206164647260448201526265737360e81b60648201526084016103b2565b6001600160a01b038316600090815260208190526040902054818110156108be5760405162461bcd60e51b815260206004820152602660248201527f45524332303a207472616e7366657220616d6f756e7420657863656564732062604482015265616c616e636560d01b60648201526084016103b2565b6001600160a01b0384811660008181526020818152604080832087870390559387168083529184902080548701905592518581529092600080516020610d85833981519152910160405180910390a361077a565b6001600160a01b0382166109685760405162461bcd60e51b815260206004820152601f60248201527f45524332303a206d696e7420746f20746865207a65726f20616464726573730060448201526064016103b2565b806002600082825461097a9190610c45565b90915550506001600160a01b03821660008181526020818152604080832080548601905551848152600080516020610d85833981519152910160405180910390a35050565b6001600160a01b038216610a1f5760405162461bcd60e51b815260206004820152602160248201527f45524332303a206275726e2066726f6d20746865207a65726f206164647265736044820152607360f81b60648201526084016103b2565b6001600160a01b03821660009081526020819052604090205481811015610a935760405162461bcd60e51b815260206004820152602260248201527f45524332303a206275726e20616d6f756e7420657863656564732062616c616e604482015261636560f01b60648201526084016103b2565b6001600160a01b038316600081815260208181526040808320868603905560028054879003905551858152919291600080516020610d8583398151915291016106f9565b600060208083528351808285015260005b81811015610b0457858101830151858201604001528201610ae8565b506000604082860101526040601f19601f8301168501019250505092915050565b80356001600160a01b0381168114610b3c57600080fd5b919050565b60008060408385031215610b5457600080fd5b610b5d83610b25565b946020939093013593505050565b600080600060608486031215610b8057600080fd5b610b8984610b25565b9250610b9760208501610b25565b9150604084013590509250925092565b600060208284031215610bb957600080fd5b61045f82610b25565b60008060408385031215610bd557600080fd5b610bde83610b25565b9150610bec60208401610b25565b90509250929050565b600181811c90821680610c0957607f821691505b602082108103610c2957634e487b7160e01b600052602260045260246000fd5b50919050565b634e487b7160e01b600052601160045260246000fd5b8082018082111561031657610316610c2f565b600181815b80851115610c93578160001904821115610c7957610c79610c2f565b80851615610c8657918102915b93841c9390800290610c5d565b509250929050565b600082610caa57506001610316565b81610cb757506000610316565b8160018114610ccd5760028114610cd757610cf3565b6001915050610316565b60ff841115610ce857610ce8610c2f565b50506001821b610316565b5060208310610133831016604e8410600b8410161715610d16575081810a610316565b610d208383610c58565b8060001904821115610d3457610d34610c2f565b029392505050565b600061045f60ff841683610c9b565b808202811582820484141761031657610316610c2f565b600082610d7f57634e487b7160e01b600052601260045260246000fd5b50049056feddf252ad1be2c89b69c2b068fc378daa952ba7f163c4a11628f55a4df523b3efa26469706673582212206fc6d520a1155c43d348b97a64ac8ad083f51e9a02404d4de5c3250d8655466c64736f6c63430008130033",
    "linkReferences": {}
  },
  "methodIdentifiers": {
    "allowance(address,address)": "dd62ed3e",
    "approve(address,uint256)": "095ea7b3",
    "balanceOf(address)": "70a08231",
    "burnFrom(address,uint256)": "79cc6790",
    "decimals()": "313ce567",
    "decreaseAllowance(address,uint256)": "a457c2d7",
    "increaseAllowance(address,uint256)": "39509351",
    "initialize(address)": "c4d66de8",
    "mint(address,uint256)": "40c10f19",
    "mint_relative(address,uint256)": "6962f845",
    "minter()": "07546172",
    "name()": "06fdde03",
    "symbol()": "95d89b41",
    "totalSupply()": "18160ddd",
    "transfer(address,uint256)": "a9059cbb",
    "transferFrom(address,address,uint256)": "23b872dd"
  },
  "id": 26
}