{
  "abi": [
    {
      "inputs": [
        {
          "internalType": "address",
          "name": "_owner",
          "type": "address"
        },
        {
          "internalType": "address[2]",
          "name": "_coins",
          "type": "address[2]"
        },
        {
          "internalType": "address",
          "name": "_pool_token",
          "type": "address"
        },
        {
          "internalType": "uint256",
          "name": "_a",
          "type": "uint256"
        },
        {
          "internalType": "uint256",
          "name": "_fee",
          "type": "uint256"
        },
        {
          "internalType": "uint256",
          "name": "_admin_fee",
          "type": "uint256"
        }
      ],
      "stateMutability": "nonpayable",
      "type": "constructor"
    },
    {
      "anonymous": false,
      "inputs": [
        {
          "indexed": true,
          "internalType": "address",
          "name": "provider",
          "type": "address"
        },
        {
          "indexed": false,
          "internalType": "uint256[2]",
          "name": "amounts",
          "type": "uint256[2]"
        },
        {
          "indexed": false,
          "internalType": "uint256[2]",
          "name": "fees",
          "type": "uint256[2]"
        },
        {
          "indexed": false,
          "internalType": "uint256",
          "name": "invariant",
          "type": "uint256"
        },
        {
          "indexed": false,
          "internalType": "uint256",
          "name": "token_supply",
          "type": "uint256"
        }
      ],
      "name": "AddLiquidity",
      "type": "event"
    },
    {
      "anonymous": false,
      "inputs": [
        {
          "indexed": true,
          "internalType": "uint256",
          "name": "deadline",
          "type": "uint256"
        },
        {
          "indexed": false,
          "internalType": "uint256",
          "name": "fee",
          "type": "uint256"
        },
        {
          "indexed": false,
          "internalType": "uint256",
          "name": "admin_fee",
          "type": "uint256"
        }
      ],
      "name": "CommitNewFee",
      "type": "event"
    },
    {
      "anonymous": false,
      "inputs": [
        {
          "indexed": false,
          "internalType": "uint256",
          "name": "fee",
          "type": "uint256"
        },
        {
          "indexed": false,
          "internalType": "uint256",
          "name": "admin_fee",
          "type": "uint256"
        }
      ],
      "name": "NewFee",
      "type": "event"
    },
    {
      "anonymous": false,
      "inputs": [
        {
          "indexed": false,
          "internalType": "uint256",
          "name": "old_A",
          "type": "uint256"
        },
        {
          "indexed": false,
          "internalType": "uint256",
          "name": "new_A",
          "type": "uint256"
        },
        {
          "indexed": false,
          "internalType": "uint256",
          "name": "initial_time",
          "type": "uint256"
        },
        {
          "indexed": false,
          "internalType": "uint256",
          "name": "future_time",
          "type": "uint256"
        }
      ],
      "name": "RampA",
      "type": "event"
    },
    {
      "anonymous": false,
      "inputs": [
        {
          "indexed": true,
          "internalType": "address",
          "name": "provider",
          "type": "address"
        },
        {
          "indexed": false,
          "internalType": "uint256[2]",
          "name": "amounts",
          "type": "uint256[2]"
        },
        {
          "indexed": false,
          "internalType": "uint256[2]",
          "name": "fees",
          "type": "uint256[2]"
        },
        {
          "indexed": false,
          "internalType": "uint256",
          "name": "token_supply",
          "type": "uint256"
        }
      ],
      "name": "RemoveLiquidity",
      "type": "event"
    },
    {
      "anonymous": false,
      "inputs": [
        {
          "indexed": true,
          "internalType": "address",
          "name": "provider",
          "type": "address"
        },
        {
          "indexed": false,
          "internalType": "uint256",
          "name": "token_amount",
          "type": "uint256"
        },
        {
          "indexed": false,
          "internalType": "uint256",
          "name": "coin_amount",
          "type": "uint256"
        }
      ],
      "name": "RemoveLiquidityOne",
      "type": "event"
    },
    {
      "anonymous": false,
      "inputs": [
        {
          "indexed": false,
          "internalType": "uint256",
          "name": "A",
          "type": "uint256"
        },
        {
          "indexed": false,
          "internalType": "uint256",
          "name": "time",
          "type": "uint256"
        }
      ],
      "name": "StopRampA",
      "type": "event"
    },
    {
      "anonymous": false,
      "inputs": [
        {
          "indexed": true,
          "internalType": "address",
          "name": "buyer",
          "type": "address"
        },
        {
          "indexed": false,
          "internalType": "int128",
          "name": "sold_id",
          "type": "int128"
        },
        {
          "indexed": false,
          "internalType": "uint256",
          "name": "tokens_sold",
          "type": "uint256"
        },
        {
          "indexed": false,
          "internalType": "int128",
          "name": "bought_id",
          "type": "int128"
        },
        {
          "indexed": false,
          "internalType": "uint256",
          "name": "tokens_bought",
          "type": "uint256"
        }
      ],
      "name": "TokenExchange",
      "type": "event"
    },
    {
      "anonymous": false,
      "inputs": [
        {
          "indexed": true,
          "internalType": "address",
          "name": "buyer",
          "type": "address"
        },
        {
          "indexed": false,
          "internalType": "int128",
          "name": "sold_id",
          "type": "int128"
        },
        {
          "indexed": false,
          "internalType": "uint256",
          "name": "tokens_sold",
          "type": "uint256"
        },
        {
          "indexed": false,
          "internalType": "int128",
          "name": "bought_id",
          "type": "int128"
        },
        {
          "indexed": false,
          "internalType": "uint256",
          "name": "tokens_bought",
          "type": "uint256"
        }
      ],
      "name": "TokenExchangeUnderlying",
      "type": "event"
    },
    {
      "inputs": [],
      "name": "A",
      "outputs": [
        {
          "internalType": "uint256",
          "name": "",
          "type": "uint256"
        }
      ],
      "stateMutability": "view",
      "type": "function"
    },
    {
      "inputs": [],
      "name": "A_precise",
      "outputs": [
        {
          "internalType": "uint256",
          "name": "",
          "type": "uint256"
        }
      ],
      "stateMutability": "view",
      "type": "function"
    },
    {
      "inputs": [
        {
          "internalType": "uint256[2]",
          "name": "amounts",
          "type": "uint256[2]"
        },
        {
          "internalType": "uint256",
          "name": "min_mint_amount",
          "type": "uint256"
        }
      ],
      "name": "add_liquidity",
      "outputs": [
        {
          "internalType": "uint256",
          "name": "",
          "type": "uint256"
        }
      ],
      "stateMutability": "payable",
      "type": "function"
    },
    {
      "inputs": [],
      "name": "admin_actions_deadline",
      "outputs": [
        {
          "internalType": "uint256",
          "name": "",
          "type": "uint256"
        }
      ],
      "stateMutability": "view",
      "type": "function"
    },
    {
      "inputs": [
        {
          "internalType": "uint256",
          "name": "",
          "type": "uint256"
        }
      ],
      "name": "admin_balances",
      "outputs": [
        {
          "internalType": "uint256",
          "name": "",
          "type": "uint256"
        }
      ],
      "stateMutability": "view",
      "type": "function"
    },
    {
      "inputs": [],
      "name": "admin_fee",
      "outputs": [
        {
          "internalType": "uint256",
          "name": "",
          "type": "uint256"
        }
      ],
      "stateMutability": "view",
      "type": "function"
    },
    {
      "inputs": [],
      "name": "apply_new_fee",
      "outputs": [],
      "stateMutability": "nonpayable",
      "type": "function"
    },
    {
      "inputs": [
        {
          "internalType": "uint256",
          "name": "i",
          "type": "uint256"
        }
      ],
      "name": "balances",
      "outputs": [
        {
          "internalType": "uint256",
          "name": "",
          "type": "uint256"
        }
      ],
      "stateMutability": "view",
      "type": "function"
    },
    {
      "inputs": [
        {
          "internalType": "uint256[2]",
          "name": "amounts",
          "type": "uint256[2]"
        },
        {
          "internalType": "bool",
          "name": "is_deposit",
          "type": "bool"
        }
      ],
      "name": "calc_token_amount",
      "outputs": [
        {
          "internalType": "uint256",
          "name": "",
          "type": "uint256"
        }
      ],
      "stateMutability": "view",
      "type": "function"
    },
    {
      "inputs": [
        {
          "internalType": "uint256",
          "name": "",
          "type": "uint256"
        }
      ],
      "name": "coins",
      "outputs": [
        {
          "internalType": "address",
          "name": "",
          "type": "address"
        }
      ],
      "stateMutability": "view",
      "type": "function"
    },
    {
      "inputs": [
        {
          "internalType": "uint256",
          "name": "new_fee",
          "type": "uint256"
        },
        {
          "internalType": "uint256",
          "name": "new_admin_fee",
          "type": "uint256"
        }
      ],
      "name": "commit_new_fee",
      "outputs": [],
      "stateMutability": "nonpayable",
      "type": "function"
    },
    {
      "inputs": [
        {
          "internalType": "int128",
          "name": "i",
          "type": "int128"
        },
        {
          "internalType": "int128",
          "name": "j",
          "type": "int128"
        },
        {
          "internalType": "uint256",
          "name": "dx",
          "type": "uint256"
        },
        {
          "internalType": "uint256",
          "name": "min_dy",
          "type": "uint256"
        }
      ],
      "name": "exchange",
      "outputs": [
        {
          "internalType": "uint256",
          "name": "",
          "type": "uint256"
        }
      ],
      "stateMutability": "payable",
      "type": "function"
    },
    {
      "inputs": [],
      "name": "fee",
      "outputs": [
        {
          "internalType": "uint256",
          "name": "",
          "type": "uint256"
        }
      ],
      "stateMutability": "view",
      "type": "function"
    },
    {
      "inputs": [],
      "name": "future_A",
      "outputs": [
        {
          "internalType": "uint256",
          "name": "",
          "type": "uint256"
        }
      ],
      "stateMutability": "view",
      "type": "function"
    },
    {
      "inputs": [],
      "name": "future_A_time",
      "outputs": [
        {
          "internalType": "uint256",
          "name": "",
          "type": "uint256"
        }
      ],
      "stateMutability": "view",
      "type": "function"
    },
    {
      "inputs": [],
      "name": "future_admin_fee",
      "outputs": [
        {
          "internalType": "uint256",
          "name": "",
          "type": "uint256"
        }
      ],
      "stateMutability": "view",
      "type": "function"
    },
    {
      "inputs": [],
      "name": "future_fee",
      "outputs": [
        {
          "internalType": "uint256",
          "name": "",
          "type": "uint256"
        }
      ],
      "stateMutability": "view",
      "type": "function"
    },
    {
      "inputs": [
        {
          "internalType": "int128",
          "name": "i",
          "type": "int128"
        },
        {
          "internalType": "int128",
          "name": "j",
          "type": "int128"
        },
        {
          "internalType": "uint256",
          "name": "dx",
          "type": "uint256"
        }
      ],
      "name": "get_dy",
      "outputs": [
        {
          "internalType": "uint256",
          "name": "",
          "type": "uint256"
        }
      ],
      "stateMutability": "view",
      "type": "function"
    },
    {
      "inputs": [],
      "name": "get_virtual_price",
      "outputs": [
        {
          "internalType": "uint256",
          "name": "",
          "type": "uint256"
        }
      ],
      "stateMutability": "view",
      "type": "function"
    },
    {
      "inputs": [],
      "name": "initial_A",
      "outputs": [
        {
          "internalType": "uint256",
          "name": "",
          "type": "uint256"
        }
      ],
      "stateMutability": "view",
      "type": "function"
    },
    {
      "inputs": [],
      "name": "initial_A_time",
      "outputs": [
        {
          "internalType": "uint256",
          "name": "",
          "type": "uint256"
        }
      ],
      "stateMutability": "view",
      "type": "function"
    },
    {
      "inputs": [],
      "name": "lp_token",
      "outputs": [
        {
          "internalType": "address",
          "name": "",
          "type": "address"
        }
      ],
      "stateMutability": "view",
      "type": "function"
    },
    {
      "inputs": [],
      "name": "owner",
      "outputs": [
        {
          "internalType": "address",
          "name": "",
          "type": "address"
        }
      ],
      "stateMutability": "view",
      "type": "function"
    },
    {
      "inputs": [
        {
          "internalType": "uint256",
          "name": "_future_A",
          "type": "uint256"
        },
        {
          "internalType": "uint256",
          "name": "_future_time",
          "type": "uint256"
        }
      ],
      "name": "ramp_A",
      "outputs": [],
      "stateMutability": "nonpayable",
      "type": "function"
    },
    {
      "inputs": [
        {
          "internalType": "uint256",
          "name": "_amount",
          "type": "uint256"
        },
        {
          "internalType": "uint256[2]",
          "name": "_min_amounts",
          "type": "uint256[2]"
        }
      ],
      "name": "remove_liquidity",
      "outputs": [
        {
          "internalType": "uint256[2]",
          "name": "",
          "type": "uint256[2]"
        }
      ],
      "stateMutability": "nonpayable",
      "type": "function"
    },
    {
      "inputs": [],
      "name": "stop_ramp_A",
      "outputs": [],
      "stateMutability": "nonpayable",
      "type": "function"
    },
    {
      "inputs": [],
      "name": "withdraw_admin_fees",
      "outputs": [],
      "stateMutability": "nonpayable",
      "type": "function"
    }
  ],
  "bytecode": {
    "object": "0x60806040523480156200001157600080fd5b50604051620027cf380380620027cf83398101604081905262000034916200019b565b600160005584516001600160a01b031673eeeeeeeeeeeeeeeeeeeeeeeeeeeeeeeeeeeeeeee1462000069576200006962000269565b60208501516001600160a01b031662000086576200008662000269565b620000956001866002620000f4565b50620000a36064846200027f565b600955620000b36064846200027f565b600a5560059190915560065550600780546001600160a01b039485166001600160a01b031991821617909155600880549290941691161790915550620002ab565b82600281019282156200013f579160200282015b828111156200013f57825182546001600160a01b0319166001600160a01b0390911617825560209092019160019091019062000108565b506200014d92915062000151565b5090565b5b808211156200014d576000815560010162000152565b80516001600160a01b03811681146200018057600080fd5b919050565b634e487b7160e01b600052604160045260246000fd5b60008060008060008060e08789031215620001b557600080fd5b620001c08762000168565b9550602088603f890112620001d457600080fd5b604080519081016001600160401b0381118282101715620001f957620001f962000185565b6040528060608a018b8111156200020f57600080fd5b838b015b818110156200023557620002278162000168565b835291840191840162000213565b50829850620002448162000168565b9750505050506080870151925060a0870151915060c087015190509295509295509295565b634e487b7160e01b600052600160045260246000fd5b8082028115828204841417620002a557634e487b7160e01b600052601160045260246000fd5b92915050565b61251480620002bb6000396000f3fe60806040526004361061019c5760003560e01c80635b5a1467116100ec578063c66106571161008a578063e382446211610064578063e382446214610424578063ed8e84f31461043a578063f446c1d01461045a578063fee3f7f91461046f57600080fd5b8063c6610657146103ce578063ddca3f43146103ee578063e2e7d2641461040457600080fd5b806382c63066116100c657806382c630661461034b5780638da5cb5b14610383578063b4b577ad146103a3578063bb7b8b80146103b957600080fd5b80635b5a1467146102f65780635e0d443f1461031657806376a2f0f01461033657600080fd5b8063405e28f8116101595780635409491a116101335780635409491a14610288578063551a65881461029e57806358680d0b146102b35780635b36389c146102c957600080fd5b8063405e28f81461023d5780634903b0d1146102535780634f12fe971461027357600080fd5b80630b4c7e4d146101a157806314052288146101c75780632081066c146101dd57806330c54085146101f35780633c157e641461020a5780633df021241461022a575b600080fd5b6101b46101af366004612176565b610485565b6040519081526020015b60405180910390f35b3480156101d357600080fd5b506101b4600c5481565b3480156101e957600080fd5b506101b4600b5481565b3480156101ff57600080fd5b5061020861098c565b005b34801561021657600080fd5b506102086102253660046121a1565b610abb565b6101b46102383660046121da565b610c96565b34801561024957600080fd5b506101b4600d5481565b34801561025f57600080fd5b506101b461026e36600461221c565b61100f565b34801561027f57600080fd5b50610208611037565b34801561029457600080fd5b506101b460095481565b3480156102aa57600080fd5b50610208611152565b3480156102bf57600080fd5b506101b4600e5481565b3480156102d557600080fd5b506102e96102e4366004612235565b6111e0565b6040516101be919061228b565b34801561030257600080fd5b506102086103113660046121a1565b611555565b34801561032257600080fd5b506101b4610331366004612299565b6116be565b34801561034257600080fd5b506101b4611780565b34801561035757600080fd5b5060085461036b906001600160a01b031681565b6040516001600160a01b0390911681526020016101be565b34801561038f57600080fd5b5060075461036b906001600160a01b031681565b3480156103af57600080fd5b506101b4600a5481565b3480156103c557600080fd5b506101b461178f565b3480156103da57600080fd5b5061036b6103e936600461221c565b61184d565b3480156103fa57600080fd5b506101b460055481565b34801561041057600080fd5b506101b461041f36600461221c565b61186d565b34801561043057600080fd5b506101b4600f5481565b34801561044657600080fd5b506101b46104553660046122e6565b611884565b34801561046657600080fd5b506101b4611a16565b34801561047b57600080fd5b506101b460065481565b600061048f611a2c565b6000610499611a85565b905060006104a634611b26565b905060006104b48284611bdf565b90506000600860009054906101000a90046001600160a01b03166001600160a01b03166318160ddd6040518163ffffffff1660e01b8152600401602060405180830381865afa15801561050b573d6000803e3d6000fd5b505050506040513d601f19601f8201168201806040525081019061052f919061231e565b90508260005b60028110156105bb578260000361056c57600089826002811061055a5761055a612337565b60200201511161056c5761056c61234d565b88816002811061057e5761057e612337565b602002015182826002811061059557610595612337565b602002018181516105a69190612379565b905250806105b38161238c565b915050610535565b5060006105c88287611bdf565b90508381116105d9576105d961234d565b6105e16120da565b60008085156107c457600060026005546105fb91906123a5565b60065490915060005b600281101561078f5760008a8c836002811061062257610622612337565b6020020151610631908a6123c7565b61063b91906123a5565b9050600089836002811061065157610651612337565b60200201518211156106855789836002811061066f5761066f612337565b602002015161067e90836123de565b90506106aa565b818a846002811061069857610698612337565b60200201516106a791906123de565b90505b6402540be4006106ba82876123c7565b6106c491906123a5565b8884600281106106d6576106d6612337565b6020020152831561073c576402540be400848985600281106106fa576106fa612337565b602002015161070991906123c7565b61071391906123a5565b6003846002811061072657610726612337565b0160008282546107369190612379565b90915550505b87836002811061074e5761074e612337565b60200201518a846002811061076557610765612337565b6020020181815161077691906123de565b90525082915061078790508161238c565b915050610604565b5061079a878c611bdf565b9250886107a781856123de565b6107b1908a6123c7565b6107bb91906123a5565b935050506107c8565b8391505b8a8210156108145760405162461bcd60e51b8152602060048201526014602482015273536c697070616765207363726577656420796f7560601b60448201526064015b60405180910390fd5b8b51341461082157600080fd5b60208c0151156108b55760025460208d01516040516323b872dd60e01b815233600482015230602482015260448101919091526001600160a01b03909116906323b872dd906064016020604051808303816000875af1158015610888573d6000803e3d6000fd5b505050506040513d601f19601f820116820180604052508101906108ac91906123f1565b6108b557600080fd5b6008546040516340c10f1960e01b8152336004820152602481018490526001600160a01b03909116906340c10f19906044016020604051808303816000875af1158015610906573d6000803e3d6000fd5b505050506040513d601f19601f8201168201806040525081019061092a91906123f1565b50337f26f55a85081d24974e85c6c00045d0f0453991e95873f52bff0d21af4079a7688d858761095a878c612379565b60405161096a9493929190612415565b60405180910390a2509750505050505050506109866001600055565b92915050565b610994611a2c565b6007546001600160a01b031633146109be5760405162461bcd60e51b815260040161080b90612442565b6003548015610a1e57604051600090339083908381818185875af1925050503d8060008114610a09576040519150601f19603f3d011682016040523d82523d6000602084013e610a0e565b606091505b5050905080610a1c57600080fd5b505b506004548015610aa65760025460405163a9059cbb60e01b8152336004820152602481018390526001600160a01b039091169063a9059cbb906044016020604051808303816000875af1158015610a79573d6000803e3d6000fd5b505050506040513d601f19601f82011682018060405250810190610a9d91906123f1565b610aa657600080fd5b5060006003819055600481905560019055565b565b6007546001600160a01b03163314610ae55760405162461bcd60e51b815260040161080b90612442565b62015180600b54610af69190612379565b421015610b3e5760405162461bcd60e51b8152602060048201526016602482015275139bdd08195b9bdd59da081d1a5b59481c185cdcd95960521b604482015260640161080b565b610b4b6201518042612379565b811015610b8e5760405162461bcd60e51b8152602060048201526011602482015270496e73756666696369656e742074696d6560781b604482015260640161080b565b6000610b98611a85565b90506000610ba76064856123c7565b9050600084118015610bbb5750620f424084105b610bf95760405162461bcd60e51b815260206004820152600f60248201526e41206f7574206f6620626f756e647360881b604482015260640161080b565b81811015610c1d5781610c0d600a836123c7565b1015610c1857600080fd5b610c34565b610c28600a836123c7565b811115610c3457600080fd5b6009829055600a81905542600b819055600c84905560408051848152602081018490528082019290925260608201859052517fa2b71ec6df949300b59aab36b55e189697b750119dd349fcfa8c0f779e83c2549181900360800190a150505050565b6000610ca0611a2c565b6000610cab34611b26565b905060008482886001600160801b031660028110610ccb57610ccb612337565b6020020151610cda9190612379565b90506000610cea88888486611dcc565b90506000600182858a6001600160801b031660028110610d0c57610d0c612337565b6020020151610d1b91906123de565b610d2591906123de565b905060006402540be40060055483610d3d91906123c7565b610d4791906123a5565b9050610d5381836123de565b915086821015610dbc5760405162461bcd60e51b815260206004820152602e60248201527f45786368616e676520726573756c74656420696e20666577657220636f696e7360448201526d081d1a185b88195e1c1958dd195960921b606482015260840161080b565b60065415610e215760006402540be40060065483610dda91906123c7565b610de491906123a5565b90508015610e1f578060038b6001600160801b031660028110610e0957610e09612337565b016000828254610e199190612379565b90915550505b505b6002546001600160a01b0316600f8b900b600003610ec457883414610e4557600080fd5b60405163a9059cbb60e01b8152336004820152602481018490526001600160a01b0382169063a9059cbb906044016020604051808303816000875af1158015610e92573d6000803e3d6000fd5b505050506040513d601f19601f82011682018060405250810190610eb691906123f1565b610ebf57600080fd5b610fa6565b3415610ecf57600080fd5b6040516323b872dd60e01b8152336004820152306024820152604481018a90526001600160a01b038216906323b872dd906064016020604051808303816000875af1158015610f22573d6000803e3d6000fd5b505050506040513d601f19601f82011682018060405250810190610f4691906123f1565b610f4f57600080fd5b604051600090339085908381818185875af1925050503d8060008114610f91576040519150601f19603f3d011682016040523d82523d6000602084013e610f96565b606091505b5050905080610fa457600080fd5b505b60408051600f8d810b8252602082018c90528c900b8183015260608101859052905133917f8b3e96f2b889fa771c53c981b40daf005f63f637f1869f707052d15a3dd97140919081900360800190a250909450505050506110076001600055565b949350505050565b600061101b6000611b26565b826002811061102c5761102c612337565b602002015192915050565b61103f611a2c565b6007546001600160a01b031633146110695760405162461bcd60e51b815260040161080b90612442565b600d544210156110af5760405162461bcd60e51b8152602060048201526011602482015270496e73756666696369656e742074696d6560781b604482015260640161080b565b600d546000036110f45760405162461bcd60e51b815260206004820152601060248201526f27379030b1ba34bb329030b1ba34b7b760811b604482015260640161080b565b6000600d55600e546005819055600f5460068190556040517fbe12859b636aed607d5230b2cc2711f68d70e51060e6cca1f575ef5d2fcc95d19261114092908252602082015260400190565b60405180910390a1610ab96001600055565b6007546001600160a01b0316331461117c5760405162461bcd60e51b815260040161080b90612442565b6000611186611a85565b6009819055600a81905542600b819055600c8190556040519192507f46e22fb3709ad289f62ce63d469248536dbc78d82b84a3d7e74ad606dc201938916111d591848252602082015260400190565b60405180910390a150565b6111e86120da565b6111f0611a2c565b60006111fc6000611b26565b90506000600860009054906101000a90046001600160a01b031690506000816001600160a01b03166318160ddd6040518163ffffffff1660e01b8152600401602060405180830381865afa158015611258573d6000803e3d6000fd5b505050506040513d601f19601f8201168201806040525081019061127c919061231e565b60405163079cc67960e41b8152336004820152602481018890529091506001600160a01b038316906379cc6790906044016020604051808303816000875af11580156112cc573d6000803e3d6000fd5b505050506040513d601f19601f820116820180604052508101906112f091906123f1565b6113315760405162461bcd60e51b8152602060048201526012602482015271496e73756666696369656e742066756e647360701b604482015260640161080b565b60005b60028110156114f8576000828886846002811061135357611353612337565b602002015161136291906123c7565b61136c91906123a5565b905086826002811061138057611380612337565b60200201518110156113eb5760405162461bcd60e51b815260206004820152602e60248201527f576974686472617720726573756c74656420696e20666577657220636f696e7360448201526d081d1a185b88195e1c1958dd195960921b606482015260840161080b565b808583600281106113fe576113fe612337565b6020020152600082900361146757604051600090339083908381818185875af1925050503d806000811461144e576040519150601f19603f3d011682016040523d82523d6000602084013e611453565b606091505b505090508061146157600080fd5b506114e5565b60025460405163a9059cbb60e01b8152336004820152602481018390526001600160a01b039091169063a9059cbb906044016020604051808303816000875af11580156114b8573d6000803e3d6000fd5b505050506040513d601f19601f820116820180604052508101906114dc91906123f1565b6114e557600080fd5b50806114f08161238c565b915050611334565b506115016120da565b337f7c363854ccf79623411f8995b362bce5eddff18c927edc6f5dbbb5e05819a82c858361152f8b876123de565b60405161153e9392919061246f565b60405180910390a250506001600055509050610986565b6007546001600160a01b0316331461157f5760405162461bcd60e51b815260040161080b90612442565b600d54156115bf5760405162461bcd60e51b815260206004820152600d60248201526c20b1ba34bb329030b1ba34b7b760991b604482015260640161080b565b64012a05f20082106116095760405162461bcd60e51b81526020600482015260136024820152724665652065786365656473206d6178696d756d60681b604482015260640161080b565b6402540be400811061165d5760405162461bcd60e51b815260206004820152601960248201527f41646d696e206665652065786365656473206d6178696d756d00000000000000604482015260640161080b565b600061166c6203f48042612379565b600d819055600e849055600f839055604080518581526020810185905291925082917f351fc5da2fbf480f2225debf3664a4bc90fa9923743aad58b4603f648e931fe0910160405180910390a2505050565b6000806116cb6000611b26565b905060008382876001600160801b0316600281106116eb576116eb612337565b60200201516116fa9190612379565b9050600061170a87878486611dcc565b9050600060018285896001600160801b03166002811061172c5761172c612337565b602002015161173b91906123de565b61174591906123de565b905060006402540be4008260055461175d91906123c7565b61176791906123a5565b905061177381836123de565b9998505050505050505050565b600061178a611a85565b905090565b6000806117ac61179f6000611b26565b6117a7611a85565b611bdf565b90506000600860009054906101000a90046001600160a01b03166001600160a01b03166318160ddd6040518163ffffffff1660e01b8152600401602060405180830381865afa158015611803573d6000803e3d6000fd5b505050506040513d601f19601f82011682018060405250810190611827919061231e565b90508061183c670de0b6b3a7640000846123c7565b61184691906123a5565b9250505090565b6001816002811061185d57600080fd5b01546001600160a01b0316905081565b6003816002811061187d57600080fd5b0154905081565b60008061188f611a85565b9050600061189d6000611b26565b905060006118ab8284611bdf565b905060005b6002811015611951578515611901578681600281106118d1576118d1612337565b60200201518382600281106118e8576118e8612337565b602002018181516118f99190612379565b90525061193f565b86816002811061191357611913612337565b602002015183826002811061192a5761192a612337565b6020020181815161193b91906123de565b9052505b806119498161238c565b9150506118b0565b50600061195e8385611bdf565b90506000600860009054906101000a90046001600160a01b03166001600160a01b03166318160ddd6040518163ffffffff1660e01b8152600401602060405180830381865afa1580156119b5573d6000803e3d6000fd5b505050506040513d601f19601f820116820180604052508101906119d9919061231e565b9050600087156119f4576119ed84846123de565b9050611a01565b6119fe83856123de565b90505b83611a0c83836123c7565b61177391906123a5565b60006064611a22611a85565b61178a91906123a5565b600260005403611a7e5760405162461bcd60e51b815260206004820152601f60248201527f5265656e7472616e637947756172643a207265656e7472616e742063616c6c00604482015260640161080b565b6002600055565b600c54600a54600091904282111561098657600954600b5481831115611aea57611aaf81856123de565b611ab982426123de565b611ac384866123de565b611acd91906123c7565b611ad791906123a5565b611ae19083612379565b94505050505090565b611af481856123de565b611afe82426123de565b611b0885856123de565b611b1291906123c7565b611b1c91906123a5565b611ae190836123de565b611b2e6120da565b604080518082019091528083600360000154611b4a90476123de565b611b5491906123de565b815260200160036001015460018001546040516370a0823160e01b81523060048201526001600160a01b03909116906370a0823190602401602060405180830381865afa158015611ba9573d6000803e3d6000fd5b505050506040513d601f19601f82011682018060405250810190611bcd919061231e565b611bd791906123de565b905292915050565b60008080805b6002811015611c2357858160028110611c0057611c00612337565b6020020151611c0f9084612379565b925080611c1b8161238c565b915050611be5565b5081600003611c3757600092505050610986565b816000611c458660026123c7565b905060005b60ff811015611d91578260005b6002811015611cb557898160028110611c7257611c72612337565b6020020151611c829060026123c7565b611c8d906001612379565b611c9786846123c7565b611ca191906123a5565b915080611cad8161238c565b915050611c57565b50839450806003611cc691906123c7565b606485611cd382876123de565b611cdd91906123c7565b611ce791906123a5565b611cf19190612379565b84611cfd8360026123c7565b6064611d098a886123c7565b611d1391906123a5565b611d1d9190612379565b611d2791906123c7565b611d3191906123a5565b935084841115611d5f576001611d4786866123de565b11611d5a57839650505050505050610986565b611d7e565b6001611d6b85876123de565b11611d7e57839650505050505050610986565b5080611d898161238c565b915050611c4a565b5060405162461bcd60e51b815260206004820152600f60248201526e506f6f6c20697320626f726b65642160881b604482015260640161080b565b600083600f0b85600f0b03611e0f5760405162461bcd60e51b815260206004820152600960248201526839b0b6b29031b7b4b760b91b604482015260640161080b565b600084600f0b1215611e4f5760405162461bcd60e51b815260206004820152600960248201526806a2062656c6f7720360bc1b604482015260640161080b565b600284600f0b12611e945760405162461bcd60e51b815260206004820152600f60248201526e6a2061626f7665204e5f434f494e5360881b604482015260640161080b565b600085600f0b1215611ed45760405162461bcd60e51b81526020600482015260096024820152680692062656c6f7720360bc1b604482015260640161080b565b600285600f0b12611f195760405162461bcd60e51b815260206004820152600f60248201526e692061626f7665204e5f434f494e5360881b604482015260640161080b565b6000611f23611a85565b90506000611f318483611bdf565b90506000611f408360026123c7565b90508160008080805b6002811215611fd1578c600f0b8103611f64578a9250611f91565b8b600f0b8114611f8c57898160028110611f8057611f80612337565b60200201519250611f91565b611fbf565b611f9b8385612379565b9350611fa88360026123c7565b611fb288876123c7565b611fbc91906123a5565b94505b80611fc981612498565b915050611f49565b50611fdd8560026123c7565b6064611fe988876123c7565b611ff391906123c7565b611ffd91906123a5565b935060008561200d6064896123c7565b61201791906123a5565b6120219085612379565b90508660005b60ff811015611d9157819350888383600261204291906123c7565b61204c9190612379565b61205691906123de565b8761206184806123c7565b61206b9190612379565b61207591906123a5565b9150838211156120a657600161208b85846123de565b116120a157509850611007975050505050505050565b6120c8565b60016120b283866123de565b116120c857509850611007975050505050505050565b8e6120d2816124b0565b9f5050612027565b60405180604001604052806002906020820280368337509192915050565b600082601f83011261210957600080fd5b6040516040810181811067ffffffffffffffff8211171561213a57634e487b7160e01b600052604160045260246000fd5b806040525080604084018581111561215157600080fd5b845b8181101561216b578035835260209283019201612153565b509195945050505050565b6000806060838503121561218957600080fd5b61219384846120f8565b946040939093013593505050565b600080604083850312156121b457600080fd5b50508035926020909101359150565b8035600f81900b81146121d557600080fd5b919050565b600080600080608085870312156121f057600080fd5b6121f9856121c3565b9350612207602086016121c3565b93969395505050506040820135916060013590565b60006020828403121561222e57600080fd5b5035919050565b6000806060838503121561224857600080fd5b8235915061225984602085016120f8565b90509250929050565b8060005b6002811015612285578151845260209384019390910190600101612266565b50505050565b604081016109868284612262565b6000806000606084860312156122ae57600080fd5b6122b7846121c3565b92506122c5602085016121c3565b9150604084013590509250925092565b80151581146122e357600080fd5b50565b600080606083850312156122f957600080fd5b61230384846120f8565b91506040830135612313816122d5565b809150509250929050565b60006020828403121561233057600080fd5b5051919050565b634e487b7160e01b600052603260045260246000fd5b634e487b7160e01b600052600160045260246000fd5b634e487b7160e01b600052601160045260246000fd5b8082018082111561098657610986612363565b60006001820161239e5761239e612363565b5060010190565b6000826123c257634e487b7160e01b600052601260045260246000fd5b500490565b808202811582820484141761098657610986612363565b8181038181111561098657610986612363565b60006020828403121561240357600080fd5b815161240e816122d5565b9392505050565b60c081016124238287612262565b6124306040830186612262565b608082019390935260a0015292915050565b60208082526013908201527213db9b1e481bdddb995c8818d85b8818d85b1b606a1b604082015260600190565b60a0810161247d8286612262565b61248a6040830185612262565b826080830152949350505050565b60006001600160ff1b01820161239e5761239e612363565b600081600f0b6f7fffffffffffffffffffffffffffffff81036124d5576124d5612363565b6001019291505056fea26469706673582212209a7366a0dd137a2363704575585d13cf5b11cf544f023f634cc966b1923cc46d64736f6c63430008130033",
    "linkReferences": {}
  },
  "methodIdentifiers": {
    "A()": "f446c1d0",
    "A_precise()": "76a2f0f0",
    "add_liquidity(uint256[2],uint256)": "0b4c7e4d",
    "admin_actions_deadline()": "405e28f8",
    "admin_balances(uint256)": "e2e7d264",
    "admin_fee()": "fee3f7f9",
    "apply_new_fee()": "4f12fe97",
    "balances(uint256)": "4903b0d1",
    "calc_token_amount(uint256[2],bool)": "ed8e84f3",
    "coins(uint256)": "c6610657",
    "commit_new_fee(uint256,uint256)": "5b5a1467",
    "exchange(int128,int128,uint256,uint256)": "3df02124",
    "fee()": "ddca3f43",
    "future_A()": "b4b577ad",
    "future_A_time()": "14052288",
    "future_admin_fee()": "e3824462",
    "future_fee()": "58680d0b",
    "get_dy(int128,int128,uint256)": "5e0d443f",
    "get_virtual_price()": "bb7b8b80",
    "initial_A()": "5409491a",
    "initial_A_time()": "2081066c",
    "lp_token()": "82c63066",
    "owner()": "8da5cb5b",
    "ramp_A(uint256,uint256)": "3c157e64",
    "remove_liquidity(uint256,uint256[2])": "5b36389c",
    "stop_ramp_A()": "551a6588",
    "withdraw_admin_fees()": "30c54085"
  },
  "id": 25
}